:020000040800F2
:10000000C0080020910100086D25000805250008A2
:1000100069250008690500085D5900080000000016
:10002000000000000000000000000000B1550008C2
:100030006D05000800000000A7010008A9010008E4
:10004000AB010008AB010008AB010008AB010008E0
:10005000AB010008AB010008AB010008AB010008D0
:10006000AB010008AB010008AB010008AB010008C0
:10007000AB010008AB010008AB010008AB010008B0
:10008000AB010008AB010008AB010008AB010008A0
:10009000AB010008AB010008AB010008AB01000890
:1000A000AB010008AB010008AB010008B555000822
:1000B000AB010008C5550008D5550008AB01000884
:1000C000AB010008AB010008AB010008AB01000860
:1000D000AB010008AB010008AB010008AB01000850
:1000E000AB010008AB010008AB01000800F002F80A
:1000F00000F03FF80AA090E8000C82448344AAF183
:100100000107DA4501D100F034F8AFF2090EBAE880
:100110000F0013F0010F18BFFB1A43F0010318473B
:10012000508B0000708B0000103A24BF78C878C153
:10013000FAD8520724BF30C830C144BF04680C60ED
:10014000704700000023002400250026103A28BF35
:1001500078C1FBD8520728BF30C148BF0B60704739
:10016000642900F07F80002070471FB51FBD10B5C7
:1001700010BD00F09BF91146FFF7F7FF06F0B6FA45
:1001800000F0B9F903B4FFF7F2FF03BC05F038FF44
:100190000948804709480047FEE7FEE7FEE7FEE71B
:1001A000FEE7FEE7FEE7FEE7FEE7FEE70448054957
:1001B000054A064B70470000B3550008ED000008E3
:1001C000C0020020C0080020C0040020C00400209D
:1001D000704700000FB41CB5074B06AA7B44694664
:1001E0000090059800F041F90020694600F050F9B0
:1001F0001CBC5DF814FB0000B10200002DE9F041C9
:100200000E460446002020622046E168884730B34D
:10021000252805D0D4E901219047206A401CF2E747
:10022000E168204600278847050018D0A5F1410065
:10023000192802D820354FF4006732462946204657
:100240002760FFF78DFF40B1012804D0F61D26F08E
:1002500007060836D8E7361DD6E72846DAE7206ACB
:10026000BDE8F0812DE9F0410646002410687529AB
:10027000314616A510D0AFF30080002802DA4042C4
:1002800013A507E031688A0701D512A502E04907E6
:1002900004D511A5012401E0AFF3008000210A225A
:1002A00006F1240709E0B0FBF2FCB0FBF2F302FB1D
:1002B0001C00303078541846491C0028F3D12346DE
:1002C0002A463046BDE8F04100F070B8000000005A
:1002D0002D0000002B0000002000000010B5203A87
:1002E000C0F00B80B1E81850203AA0E81850B1E8EF
:1002F0001850A0E81850BFF4F5AF5FEA027C24BFA5
:10030000B1E81850A0E8185044BF18C918C0BDE89B
:1003100010405FEA827C24BF51F8043B40F8043B64
:1003200008BF7047D20728BF31F8023B48BF11F819
:10033000012B28BF20F8023B48BF00F8012B704773
:100340004FF0000200B5134694469646203922BF6E
:10035000A0E80C50A0E80C50B1F12001BFF4F7AFB9
:10036000090728BFA0E80C5048BF0CC05DF804EB9B
:10037000890028BF40F8042B08BF704748BF20F809
:10038000022B11F0804F18BF00F8012B7047704707
:1003900070477047704710B500F080F8006810BDD6
:1003A00010B5044600F07AF8046010BD2DE9F0475E
:1003B0000D4699469246044600F1240801688806D5
:1003C00004D5E06921F01001216000E00120A8427D
:1003D00001DD471B00E00027A1697A1902EB090043
:1003E000081AA0612078C00602D42046AFF300802E
:1003F000002608E0D4E901211AF806009047206A97
:10040000401C761C20624E45F4DB2078C0060AD5DD
:100410002046AFF3008006E0D4E901213020904768
:10042000206A401C2062381EA7F10107F4DC07E0B7
:10043000D4E9012118F805009047206A401C206289
:10044000281EA5F10105F3DC2046AFF300802078DB
:10045000000602D50220BDE8F0870120FBE700007E
:1004600001694A1C02610878704700B58FB0CDE978
:1004700001310021059105497944CDE90310114668
:100480006846FFF7BBFE0FB000BD0000E5FFFFFFB1
:100490000A6802F8010B0A607047000000487047C4
:1004A0006002002000487047600200207546FFF798
:1004B000F9FFAE4605006946534620F00700854621
:1004C00018B020B5FFF772FEBDE820404FF00006DF
:1004D0004FF000074FF000084FF0000B21F007012C
:1004E000AC46ACE8C009ACE8C009ACE8C009ACE86F
:1004F000C0098D46704710B50446AFF30080204612
:10050000BDE81040FFF73EBE2DE9F0416E2006F039
:10051000B5FB4FF4FA7005F095FE00BF0122802173
:100520000D4800F0BDF900BF4FF4FA7005F08AFEE7
:100530000A49C86807F091F80746094A094B07F0CD
:10054000B7F881F00041054607F02AF8044606F0A6
:1005500095FBBDE8F0810000000C01404C0100203B
:10056000CDCCCCCCCCCCCC3F00BFFEE7704700005C
:100570002DE9F8470346002294466EE14FF001084A
:1005800008FA02F4D1F8008008EA0400A0427DD104
:10059000DFF8DCA2D1F80480A8EB0A09D0453AD0F4
:1005A00014DCB8F1030F50D009DCB8F1000F31D0E2
:1005B000B8F1010F1CD0B8F1020F49D120E0B8F119
:1005C000110F18D0B8F1120F42D11EE0B9F5881FF3
:1005D00025D006DCB9F5803F20D0B9F5801F37D192
:1005E0001AE0B9F5001F18D0B9F5041F30D117E093
:1005F000D1F80CC02DE0D1F80C8008F1040C28E0F3
:10060000D1F80C8008F1080C23E0D1F80C8008F137
:100610000C0C1EE000BF00BF00BF00BF00BF00BF4A
:10062000D1F80880B8F1000F02D14FF0040C0BE0B4
:10063000D1F80880B8F1010F03D14FF0080C1C610C
:1006400002E04FF0080C5C6103E04FF0000C00E0AA
:1006500000BF00BFFF2801D8984601E003F104085D
:100660004646FF2802D84FEA820803E0A2F10808B4
:100670004FEA88084746D6F800804FF00F0909FA7C
:1006800007F928EA09080CFA07F900E088E048EAC7
:100690000908C6F80080D1F8048008F08058B8F145
:1006A000805F7DD100BFDFF8CC81D8F8188048F09A
:1006B0000108DFF8C091C9F81880C846D8F818803A
:1006C00008F00108CDF8008000BF00BF4FEAB9383C
:1006D0004FEA920958F829504FEA82784FEA187980
:1006E0004FF00F0808FA09F825EA0805DFF88881B5
:1006F000434502D14FF0000816E0DFF88081434502
:1007000002D14FF001080FE0DFF87481434502D1B8
:100710004FF0020808E0DFF86C81434502D14FF04A
:10072000030801E04FF004084FEA82794FEA197993
:1007300008FA09F848EA0505DFF84C814FEA920902
:1007400048F82950D1F8048008F48038B8F5803F83
:100750000AD1DFF83881D8F8008048EA0008DFF8CD
:100760002C91C9F8008009E0DFF82081D8F80080DA
:1007700028EA0008DFF81491C9F80080D1F8048055
:1007800008F40038B8F5003F10D1DFF8008108F117
:100790000408D8F8008048EA0008DFF8F09000E08C
:1007A0005AE009F10409C9F800800DE0DFF8DC80A7
:1007B00008F10408D8F8008028EA0008DFF8CC9097
:1007C00009F10409C9F80080D1F8048008F4801800
:1007D000B8F5801F0ED1DFF8B48008F10808D8F80A
:1007E000008048EA0008DFF8A49009F10809C9F878
:1007F00000800DE0DFF8948008F10808D8F8008048
:1008000028EA0008DFF8849009F10809C9F8008097
:10081000D1F8048008F40018B8F5001F0ED1DFF8F5
:100820006C8008F10C08D8F8008048EA0008DFF86E
:100830005C9009F10C09C9F800800DE0DFF84C80EC
:1008400008F10C08D8F8008028EA0008DFF83C908E
:1008500009F10C09C9F80080521CD1F8008028FA6F
:1008600002F8B8F1000F7FF489AEBDE8F887000008
:10087000000011100010024000080140000C01406F
:100880000010014000140140080001400004014034
:10089000024693680B400BB1012000E00020704736
:1008A0000AB1016101E00B0403617047014800686F
:1008B000704700003000002010B50848006840F084
:1008C000100006490860052000F080F80F2000F0B5
:1008D00007F800F02BF8002010BD000000200240B7
:1008E00070B504460E4800784FF47A71B1FBF0F011
:1008F0000C490968B1FBF0F5284600F0F7FB08B198
:10090000012070BD102C07D200222146501E00F09D
:100910001EF80548046001E00120F2E70020F0E73E
:1009200038000020280000203400002070470146D5
:100930000846002809DB00F01F0301229A40430902
:100940009B0003F1E023C3F8002100BF70472DE9AD
:10095000F05F80460D461646002705F015F807465D
:1009600039462A46334601F00700C0F1070ABAF1BA
:10097000040F02D94FF0040A01E0C0F1070AD14682
:1009800000F1040ABAF1070F02D24FF0000A01E0A9
:10099000A0F1030AD4464FF0010A0AFA09FAAAF1B3
:1009A000010A0AEA020A0AFA0CFA4FF0010B0BFAE2
:1009B0000CFBABF1010B0BEA030B4AEA0B042146DB
:1009C000404604F0E9FFBDE8F09F000000BF00F0E2
:1009D0000702064B19684FF6FF031940044B0B43FF
:1009E00043EA0221014B196000BF70470CED00E0A3
:1009F0000000FA0570B504460D460CB9012070BD23
:100A00005A48006800F00700A8420ED25748006814
:100A100020F007002843554908600846006800F0A8
:100A20000700A84201D00120E9E7207800F0020089
:100A300002281DD1207800F00400042805D14C487C
:100A4000406840F4E0604A494860207800F00800BF
:100A5000082805D14648406840F460504449486041
:100A60004348406820F0F000A168084340494860CE
:100A7000207800F0010078B36068012806D13C4876
:100A8000006800F4003090B90120B8E760680228DF
:100A900006D13748006800F0007040B90120AEE789
:100AA0003348006800F0020008B90120A7E7304889
:100AB000406820F00300616808432D494860FFF753
:100AC000F5FE064609E0FFF7F1FE801B41F2883192
:100AD000884202D9032092E707E02548406800F0E9
:100AE0000C006168B0EB810FEDD12048006800F088
:100AF0000700A8420ED91D48006820F007002843CF
:100B00001A4908600846006800F00700A84201D0B2
:100B1000012074E7207800F00400042807D114486D
:100B2000406820F4E060E16808431149486020789B
:100B300000F00800082808D10D48406820F46050F3
:100B4000216940EAC1000A49486000F03FF80849BD
:100B50004968C1F30311074A515CC840064908605F
:100B600006480068FFF7BCFE002048E7002002406E
:100B700000100240208300082800002034000020DC
:100B800001480068704700002800002000B5FFF70A
:100B9000F7FF04494968C1F30221034A515CC84088
:100BA00000BD0000001002403083000800B5FFF7D0
:100BB000E7FF04494968C1F3C221034A515CC840B8
:100BC00000BD00000010024030830008F0B585B081
:100BD0000FF26C0C9CE8E01001A8A0E8E0101CA546
:100BE0002D68009500210022002300240020194DCB
:100BF000696801F00C05F5B1042D02D0082D19D15A
:100C000001E0154819E001ADC1F38346AC5D01F484
:100C1000803555B10F4D6D68C5F340451DF8052071
:100C20000D4D6543B5FBF2F302E00C4D04FB05F3FB
:100C3000184602E000BF084800BF00BF05B0F0BD85
:100C400002030405060708090A0B0C0D0E0F10100D
:100C5000010200000010024000127A0000093D006D
:100C6000F8B504460CB90120F8BD207800F0010069
:100C7000002878D0F848406800F00C0004280CD018
:100C8000F548406800F00C00082811D1F24840688F
:100C900000F48030B0F5803F0AD1EF48006800F4DE
:100CA000003000285FD0606800285CD10120DBE7BD
:100CB00000BF6068B0F5803F06D1E748006840F4A7
:100CC0008030E549086028E0606858B9E24800686B
:100CD00020F48030E04908600846006820F4802055
:100CE00008601AE06068B0F5A02F0BD1DA48006800
:100CF00040F48020D84908600846006840F48030FD
:100D000008600AE0D448006820F48030D2490860C6
:100D10000846006820F48020086000BF606888B141
:100D2000FFF7C4FD054606E0FFF7C0FD401B642841
:100D300001D9032098E7C848006800F40030002873
:100D4000F2D010E0FFF7B2FD054606E0FFF7AEFD7A
:100D5000401B642801D9032086E7BF48006800F4DF
:100D600000300028F2D1207800F00200022857D18C
:100D7000B948406800F00C0050B1B748406800F036
:100D80000C00082818D1B448406800F4803098B9A5
:100D9000B148006800F0020020B12069012801D0AC
:100DA000012061E7AC48006820F0F800616940EA82
:100DB000C100A949086033E02069E8B10120A749D2
:100DC0000860FFF773FD054606E0FFF76FFD401B67
:100DD000022801D9032047E79F48006800F002007D
:100DE0000028F2D09C48006820F0F800616940EAD1
:100DF000C1009949086013E0002098490860FFF796
:100E000055FD054606E0FFF751FD401B022801D9BC
:100E1000032029E79048006800F002000028F2D182
:100E2000207800F0080008282DD1A069B8B1012071
:100E30008B490860FFF73AFD054606E0FFF736FDEF
:100E4000401B022801D903200EE78348406A00F0C6
:100E500002000028F2D0012004F022F813E0002064
:100E60007F490860FFF722FD054606E0FFF71EFDFB
:100E7000401B022801D90320F6E67748406A00F0BB
:100E800002000028F2D1207800F00400042873D179
:100E900000277148C06900F0805070B900BF6E48EB
:100EA000C06940F080506C49C8610846C06900F0D4
:100EB0008050009000BF00BF01276A48006800F41E
:100EC0008070B0B96748006840F480706549086078
:100ED000FFF7ECFC054606E0FFF7E8FC401B642842
:100EE00001D90320C0E65F48006800F48070002844
:100EF000F2D000BFE068012806D15748006A40F0F0
:100F000001005549086227E0E06858B95248006A74
:100F100020F00100504908620846006A20F00400F1
:100F2000086219E0E06805280BD14B48006A40F0E0
:100F30000400494908620846006A40F0010008625E
:100F40000AE04548006A20F001004349086208466B
:100F5000006A20F00400086200BFE068A0B1FFF75B
:100F6000A5FC054609E0FFF7A1FC401B41F28831D2
:100F7000884202D9032077E622E03748006A00F071
:100F800002000028EFD012E0FFF790FC054608E0D1
:100F9000FFF78CFC401B41F28831884201D90320C5
:100FA00062E62D48006A00F002000028F0D1012F0F
:100FB00005D12948C06920F080502749C86100BF89
:100FC000E069C8B32448406800F00C00082860D0ED
:100FD000E069022848D1002020490866FFF766FC36
:100FE000054606E0FFF762FC401B022801D90320FA
:100FF0003AE61948006800F000700028F2D1206A33
:10100000B0F5803F07D11448406820F40030A16853
:10101000084311494860D4E9080108430E4949686A
:1010200021F4741108430C49486001200B490866FB
:10103000FFF73CFC054607E03DE0FFF737FC401BAF
:10104000022801D903200FE60348006800F0007071
:101050000028F2D02FE000000010024000004242C1
:101060008004424200700040002014490866FFF7E7
:101070001DFC054606E0FFF719FC401B022801D9BC
:101080000320F1E50E48006800F000700028F2D15E
:1010900011E0E069012800D1E6E50948466806F458
:1010A0008031206A814204D106F47011606A814265
:1010B00001D00120D8E50020D6E500000000424222
:1010C00000100240042808D14FF0E021096941F0E6
:1010D00004014FF0E022116107E04FF0E0210969BF
:1010E00021F004014FF0E0221161704770B5044611
:1010F0002546681EB0F1807F01D301200FE0681EF5
:101100004FF0E02148610F214FF0FF3004F044FC24
:1011100000204FF0E021886107200861002070BDA9
:101120007047704710B504460CB9012010BD94F803
:101130003D0028B9002084F83C00204600F026F845
:10114000022084F83D00211D206804F04BFA0120A4
:1011500084F8460000BF84F83E0001213F2001557D
:10116000402001554120015500BF00BF012084F8F7
:10117000420043200155442001554520015500BF40
:10118000012084F83D000020D0E7000038B5044677
:101190001C492068884217D100BF00BF1A48C069A7
:1011A00040F004001849C8610846C06900F0040016
:1011B000009000BF00BF00BF032211461E20FFF7B2
:1011C000C6FB1E20FFF7B3FB10492068884217D1E9
:1011D00000BF00BF0C48C06940F002000A49C86166
:1011E0000846C06900F00200009000BF00BF00BFC9
:1011F000022211461D20FFF7AAFB1D20FFF797FBD7
:1012000038BD00000008004000100240000400400B
:10121000014691F83D00012801D0012070470220CD
:1012200081F83D00124B086898420BD00868B0F175
:10123000804F07D00F4B0868984203D00E4B0868C8
:1012400098420CD10868806800F00702062A0CD08A
:101250000868006840F001000B68186005E0086845
:10126000006840F001000B6818600020D6E700001D
:10127000002C01400004004000080040014691F8A5
:101280003D00012801D001207047022081F83D0077
:101290000868C06840F001000B68D860124B08680D
:1012A00098420BD00868B0F1804F07D00F4B086808
:1012B000984203D00E4B086898420CD108688068A9
:1012C00000F00702062A0CD00868006840F0010010
:1012D0000B68186005E00868006840F001000B68C2
:1012E00018600020D0E70000002C014000040040FE
:1012F00000080040704710B5044620680069C0F33C
:101300004000D8B12068C068C0F34000B0B16FF0B1
:10131000020021680861012020772068806900F0C0
:10132000030018B12046FFF7E5FF05E0204600F076
:10133000E1F8204600F062FB002020772068006979
:10134000C0F38000D8B12068C068C0F38000B0B19D
:101350006FF004002168086102202077206880690E
:1013600000F4407018B12046FFF7C4FF05E02046A6
:1013700000F0C0F8204600F041FB002020772068F4
:101380000069C0F3C000D8B12068C068C0F3C000D5
:10139000B0B16FF008002168086104202077206850
:1013A000C06900F0030018B12046FFF7A3FF05E075
:1013B000204600F09FF8204600F020FB0020207718
:1013C00020680069C0F30010D8B12068C068C0F37D
:1013D0000010B0B16FF0100021680861082020777C
:1013E0002068C06900F4407018B12046FFF782FF02
:1013F00005E0204600F07EF8204600F0FFFA0020CD
:1014000020772068006900F0010058B12068C068AA
:1014100000F0010030B16FF0010021680861204642
:1014200000F0EEFA20680069C0F3C01058B12068DF
:10143000C068C0F3C01030B16FF08000216808614F
:101440002046FFF76DFE20680069C0F3801058B198
:101450002068C068C0F3801030B16FF04000216890
:101460000861204600F056FF20680069C0F3401074
:1014700058B12068C068C0F3401030B16FF0200050
:10148000216808612046FFF74CFE10BD70B5044688
:101490000E46154600BF94F83C00012801D10220F9
:1014A00070BD012084F83C0000BF35B1042D09D087
:1014B000082D0CD00C2D14D10EE03146206804F01C
:1014C000DDF80FE03146206804F008F90AE0314603
:1014D000206804F037F905E03146206804F066F929
:1014E00000E000BF00BF00BF002084F83C0000BF48
:1014F00000BFD5E710B504466649206888427DD113
:10150000207F01283ED164480078401C6249087061
:10151000087800EBD0714910A0EB410109BB002015
:101520005D49087001205D4908705D488068401E73
:101530005B49886008460079012804D10846C068E4
:10154000401CC86004E05648C068401E5449C8604A
:101550005348806828B9012005F080FD00204F49DC
:10156000087050480068406B4F49086008460068A2
:1015700096304FF6FF71B0FBF1F201FB12004949C2
:1015800009684863207F082840D148480078401CFB
:1015900046490870087800EBD0714910A0EB410172
:1015A00009BB0020414908700120414908704148A9
:1015B0008068401E3F49886008460079012804D1B0
:1015C0000846C068401CC86004E03A48C068401E35
:1015D0003849C8603748806828B9042005F03EFDC6
:1015E0000020334908702F480068406A324908607B
:1015F0000846006896304FF6FF7100E048E0B0FB07
:10160000F1F201FB1200274909680864207F0228D3
:101610003ED12A480078401C28490870087800EB21
:10162000D0714910A0EB410109BB0020234908708B
:1016300001202349087023488068401E21498860A2
:1016400008460079012804D10846C068401CC860DB
:1016500004E01C48C068401E1A49C86019488068E8
:1016600028B9022005F0FAFC0020154908700D4841
:101670000068806B144908600846006896304FF691
:10168000FF71B0FBF1F201FB1200064909688863A3
:1016900010BD0000002C01404F0000204C00002035
:1016A0003C0100206C0100203C0000205100002083
:1016B0004E0000205C01002044000020500000206B
:1016C0004D0000204C0100204000002010B50446D1
:1016D0000CB9012010BD94F83D0028B9002084F811
:1016E0003C00204600F026F8022084F83D00211D31
:1016F000206803F077FF012084F8460000BF84F8DB
:101700003E0001213F200155402001554120015557
:1017100000BF00BF012084F842004320015544204F
:1017200001554520015500BF012084F83D000020EF
:10173000D0E7000010B586B004462B4920688842E7
:1017400050D100BF00BF2948806940F4006027499C
:1017500088610846806900F40060019000BF00BF06
:1017600000BF00BF00BF0846806940F004008861E8
:101770000846806900F00400019000BF00BF00BF70
:1017800000BF00BF0846806940F004008861084639
:10179000806900F00400019000BF00BF00BF881501
:1017A000029002200390012004900320059002A9DA
:1017B0000F48FEF7DDFE4FF40070029002A90C48BE
:1017C000FEF7D6FE4FF40060029002A90848FEF72B
:1017D000CFFE012211461B20FFF7B9F81B20FFF7AF
:1017E000A6F800BF06B010BD002C0140001002405A
:1017F0000008014070B504460D4615B994F83E0046
:101800000BE0042D02D13F20005D06E0082D02D13F
:101810004020005D01E04120005D012801D0012051
:1018200070BD1DB9022084F83E000EE0042D03D1E6
:1018300002213F20015508E0082D03D1022140205C
:10184000015502E002214120015535B1042D0BD094
:10185000082D10D00C2D1CD114E02068C06840F079
:1018600002002168C86015E02068C06840F00400EC
:101870002168C8600EE02068C06840F00800216858
:10188000C86007E02068C06840F010002168C860A8
:1018900000E000BF00BF01222946206803F0DCFE03
:1018A00019492068884201D1012000E0002028B1B8
:1018B0002068406C40F40040216848641249206868
:1018C00088420BD02068B0F1804F07D00F492068C4
:1018D000884203D00E49206888420CD12068806875
:1018E00000F00706062E0CD02068006840F00100CA
:1018F0002168086005E02068006840F00100216868
:10190000086000208CE70000002C0140000400402B
:101910000008004030B504460D4635B1042D0BD00B
:10192000082D10D00C2D1CD114E02068C06820F0C8
:1019300002002168C86015E02068C06820F004003B
:101940002168C8600EE02068C06820F008002168A7
:10195000C86007E02068C06820F010002168C860F7
:1019600000E000BF00BF00222946206803F074FE9B
:1019700021492068884201D1012000E0002090B177
:1019800000BF2068006A41F21111084050B9206878
:10199000006A8910084028B92068406C20F4004093
:1019A0002168486400BF00BF2068006A41F211113D
:1019B000084050B92068006A8910084028B920689A
:1019C000006820F001002168086000BF1DB90120F7
:1019D00084F83E000EE0042D03D101213F20015583
:1019E00008E0082D03D101214020015502E001212A
:1019F00041200155002030BD002C014070470000FF
:101A000010B50446FE492068884216D1FD4800788A
:101A100098B100F091FF01F065FA01F039FD01F095
:101A200099FF02F00BF902F07DFA02F007FC02F0D8
:101A30008FFD02F019FF03F0A3F8F34920688842F4
:101A40007ED1F2480078002820D1F14800780128A2
:101A50001DD10020EF4908700120EF4908700520D2
:101A6000EE49087000F068FF01F03CFA01F010FD4B
:101A700001F070FF02F0E2F800BF01222021E848E7
:101A8000FEF70EFF00BF0220E149087082E1E04846
:101A9000007803285DD1031F0122E249E24800F0EB
:101AA000C5FCE04800785B28F0D14FF0FF330A22F4
:101AB000DC49491CDC4800F0B9FCDA48807A5D2832
:101AC000E4D1D84840783038D8490860D548807883
:101AD00030384860D348C07830388860D1480079C1
:101AE0003038C860CF48407930380861CD488079B7
:101AF00030384861CB48C07930388861C948007AAD
:101B00003038C861C748407A303808620020C1497F
:101B100008700220C0490870C44804F0D5FB401C7E
:101B2000BE49087000F008FF01F0DCF901F0B0FCDC
:101B300001F010FF02F082F800BF0122202100E036
:101B400069E3B748FEF7ACFE00BF0420B049087057
:101B500020E1AF48007805285BD1831F0122B149FD
:101B6000B14800F063FCAF4800785B288ED14FF09D
:101B7000FF330A22AB49491CAB4800F057FCA94887
:101B8000807A5D28E4D1A74840783038A7490860BA
:101B9000A448807830384860A248C07830388860DF
:101BA000A04800793038C8609E48407930380861D4
:101BB0009C488079303848619A48C07930388861CB
:101BC0009848007A3038C8619648407A30380862C0
:101BD00000209049087003208F490870934804F052
:101BE00073FB401C8D49087000F0A6FE01F07AF9E5
:101BF00001F04EFC01F0AEFE02F020F800BF012221
:101C000020218748FEF74CFE00BF0620804908705F
:101C1000C0E07F48007807285CD14FF0FF330122F5
:101C20008049814800F002FC7E4800785B288FD113
:101C30004FF0FF330A227B49491C7B4800F0F6FB3A
:101C40007848807A5D28E3D1764840783038774903
:101C5000086074488078303848607248C0783038FE
:101C60008860704800793038C8606E4840793038F4
:101C700008616C488079303848616A48C0793038EA
:101C800088616848007A3038C8616648407A3038E0
:101C9000086200205F49087004205F4908706348AB
:101CA00004F012FB401C5D49087000F045FE01F095
:101CB00019F901F0EDFB01F04DFE01F0BFFF00BF8F
:101CC000012220215648FEF7EBFD00BF08205049B5
:101CD00008705FE04E48007809285BD14FF0FF3371
:101CE00001225049504800F0A1FB4E4800785B2883
:101CF00050D14FF0FF330A224A49491C4A4800F0AC
:101D000095FB4848807A5D2844D146484078303871
:101D10004649086043488078303848604148C07878
:101D2000303888603F4800793038C8603D48407995
:101D3000303808613B488079303848613948C0798B
:101D4000303888613748007A3038C8613548407A81
:101D50003038086200202F49087005202E4908708D
:101D6000324804F0B1FA401C2C49087000F0E4FD40
:101D700001F0B8F801F08CFB01F0ECFD01F05EFF22
:101D800000BF012220212648FEF78AFD00BF0A205D
:101D90001F4908701D48007801287DD11C48007833
:101DA00001287AD1831E01221E491F4800F03EFB04
:101DB0001C4800785B28F0D14FF0FF330A22194904
:101DC000491C194800F032FB1648807A5D28E4D19E
:101DD0001448407830381549086012488078303807
:101DE00048601048C078303888600E480079303834
:101DF000C8600C484079303808610A48807917E09B
:101E000000080040030000200004004027000020DC
:101E10002600002000000020010000200200002019
:101E2000000C014098000020FC000020B4000020BD
:101E300030384861F848C07930388861F648007A0F
:101E40003038C861F448407A3038086200201CE01D
:101E5000F24951F8201021B90021F14A42F820102E
:101E600012E0EE4951F82010012904D10221EC4A78
:101E700042F8201008E0E94951F82010022903D166
:101E80000121E74A42F82010401C0828E0DD01202B
:101E9000E4490870E44901E0A1E11BE00870E04872
:101EA00004F012FA401CE149087002F03BF802F01D
:101EB000C5F902F04DFB02F0D7FC02F061FE00BF55
:101EC00001222021DA48FEF7EBFC00BF0220D949AD
:101ED000087084E1D748007803287DD1031F0122D0
:101EE000CD49D54800F0A2FACB4800785B28F0D164
:101EF0004FF0FF330A22C849491CCF4800F096FA38
:101F0000C548807A5D28E4D1C34840783038C34959
:101F10000860C148807830384860BF48C0783038A1
:101F20008860BD4800793038C860BB484079303897
:101F30000861B948807930384861B748C07930388D
:101F40008861B548007A3038C861B348407A303883
:101F5000086200201CE0B14951F8201021B900218D
:101F6000AF4A42F8201012E0AC4951F82010012984
:101F700004D10221AA4A42F8201008E0A74951F8EA
:101F80002010022903D10121A54A42F82010401C4B
:101F90000828E0DD0120A34908700220A24908704A
:101FA0009F4804F091F9401CA049087001F0BAFF65
:101FB00002F044F902F0CCFA02F056FC02F0E0FD27
:101FC00000BF012220219A48FEF76AFC00BF0420CE
:101FD0009849087003E1FFE79648007805287DD10D
:101FE000831F01228C49944800F020FA8A48007827
:101FF0005B28EFD14FF0FF330A228749491C8E48F6
:1020000000F014FA8448807A5D28E3D18248407851
:1020100030388249086080488078303848607E488F
:10202000C078303888607C4800793038C8607A4899
:10203000407930380861784880793038486176488E
:10204000C079303888617448007A3038C861724885
:10205000407A3038086200201CE0704951F82010A6
:1020600021B900216E4A42F8201012E06B4951F864
:102070002010012904D10221694A42F8201008E009
:10208000664951F82010022903D10121644A42F81F
:102090002010401C0828E0DD012062490870032060
:1020A000614908705E4804F00FF9401C5F490870F0
:1020B00001F038FF02F0C2F802F04AFA02F0D4FB55
:1020C00002F05EFD00BF012220215948FEF7E8FB27
:1020D00000BF06205749087081E0FFE755480078A7
:1020E00007287CD14FF0FF3301224B49524800F0C2
:1020F0009DF9494800785B2871D14FF0FF330A22DF
:102100004549491C4C4800F091F94348807A5D28C4
:1021100065D1414840783038404908603E48807871
:10212000303848603C48C078303888603A48007998
:102130003038C8603848407930380861364880798E
:10214000303848613448C079303888613248007A84
:102150003038C8613048407A3038086200201CE0CE
:102160002E4951F8201021B900212D4A42F82010A3
:1021700012E02A4951F82010012904D10221284AED
:1021800042F8201008E0254951F82010022903D117
:102190000121234A42F82010401C0828E0DD0120DC
:1021A000204908700420204908701D4804F08CF86C
:1021B000401C1E49087001F0B5FE02F03FF802F025
:1021C000C7F902F051FB02F0DBFC00BF0122202125
:1021D0001748FEF765FB00BF08201649087017482E
:1021E0000078052817D116480068401C144908607B
:1021F00008460068012829D112480078094908706A
:1022000010480079084908700E48007A074908709C
:1022100001200D49087067E098000020B4000020FC
:10222000D800002000000020010000200200002053
:10223000000C014026000020FC00002006000020C9
:1022400008000020680000200300002027480068E4
:102250003D280FD12648007B264908702448007C81
:10226000254908702248007D24490870012024492E
:10227000087039E01D480068792810D11C48007E9C
:102280001C4908701A48007F1B490870184890F8CC
:1022900020001A49087001201949087024E01348E9
:1022A0000068B52820D1124890F824001149087020
:1022B0000F4890F82800104908700D4890F82C003D
:1022C0000E49087001200E49087000200D49087061
:1022D000084602780CA10E48FDF77CFF0C230C4A3F
:1022E0000621002000F0A2FA10BD00000800002026
:1022F00068000020000000200100002002000020F3
:102300000300002006000020666C61673A25640027
:1023100054000020704710B504460CB9012010BDD0
:10232000A06900B100E000BF94F8390028B900208E
:1023300084F83800204600F027F8242084F839007B
:102340002068C06820F400502168C860204603F06F
:1023500051FA2068006920F49040216808612068E3
:10236000406920F02A00216848612068C06840F474
:1023700000502168C8600020E063202084F8390004
:1023800084F83A000020CAE710B586B00446244914
:102390002068884241D100BF00BF2248806940F0D8
:1023A0000400204988610846806900F0040001901B
:1023B00000BF00BF00BF00BF00BF0846806940F0FB
:1023C000040088610846806900F00400019000BFA5
:1023D00000BF00BF00BF00BF0846C06940F4003026
:1023E000C8610846C06900F40030019000BF00BF1A
:1023F00000BF0420029002200390012004900320DB
:10240000059002A90848FEF7B3F8082002900020C2
:10241000039002A90448FEF7ABF806B010BD000017
:102420000044004000100240000801402DE9F84F30
:1024300004460E46174699464FF0000A94F83A00B3
:1024400020285DD106B117B90120BDE8F88F00BF83
:1024500094F83800012801D10220F6E7012084F821
:10246000380000BF0020E063222084F83A00FEF725
:102470001DFA8246A785E785A068B0F5805F04D184
:10248000206910B90025B04602E035464FF000083B
:1024900000BF002084F8380000BF29E05346002226
:1024A00020212046CDF8009003F022FA08B1032045
:1024B000CBE745B920684068C0F30800A8F80000E1
:1024C00008F1020811E0A068B0F5805F03D0A068B1
:1024D00028B9206918B920684068287004E020688D
:1024E000406800F07F0028706D1CE08D401EE08584
:1024F000E08D0028D2D1202084F83A000020A4E703
:102500000220A2E700BFFEE72DE9F0416E2004F0B3
:10251000B5FB4FF4FA7003F095FE00BF0022802156
:102520000D48FEF7BDF900BF4FF4FA7003F08AFEC4
:102530000A49C86805F091F80746094A094B05F0B1
:10254000B7F881F00041054605F02AF8044604F08A
:1025500095FBBDE8F0810000000C01404C0100201B
:10256000CDCCCCCCCCCCCC3F00BFFEE7704770B517
:10257000002418E004F1B000002100F072F90021FD
:10258000084600F06EF90021102000F06AF90025DD
:1025900005E00121002000F064F9681CC5B2802D1F
:1025A000F7DB601CC4B2082CE4DB70BD10B501225F
:1025B00011020A48FEF774F9012251020748FEF79A
:1025C0006FF900224FF400710448FEF769F9002208
:1025D0004FF480710148FEF763F910BD000C014013
:1025E00010B5012211020748FEF75AF900224FF4F4
:1025F00000710448FEF754F9012251020148FEF728
:102600004FF910BD000C014010B501221102054820
:10261000FEF746F900224FF480710248FEF740F9B8
:1026200010BD0000000C014000B585B000BF4A4855
:10263000806940F00800484988610846806900F0D8
:102640000800009000BF00BF4FF4407001900120CF
:1026500002900320049001A94048FDF789FF012260
:1026600011023E48FEF71CF9012251023B48FEF7D9
:1026700017F94FF4487003F0E5FD0021AE2000F09B
:10268000F0F80021084600F0ECF80021102000F0DE
:10269000E8F80021402000F0E4F80021B02000F02C
:1026A000E0F80021812000F0DCF80021FF2000F09C
:1026B000D8F80021A12000F0D4F80021A62000F0D5
:1026C000D0F80021A82000F0CCF800213F2000F035
:1026D000C8F80021C82000F0C4F80021D32000F081
:1026E000C0F80021084600F0BCF80021D52000F019
:1026F000B8F80021802000F0B4F80021D82000F0C4
:10270000B0F80021052000F0ACF80021D92000F03D
:10271000A8F80021F12000F0A4F80021DA2000F050
:10272000A0F80021122000F09CF80021DB2000F02E
:1027300098F80021302000F094F800218D2000F05E
:1027400090F80021142000F08CF80021AF2000F058
:1027500088F805B000BD000000100240000C0140E8
:1027600070B504460D4605F1B000002100F079F87F
:10277000102141EA1410002100F073F804F00F005A
:10278000002100F06EF870BD2DE9F04707460E46B7
:102790009046994600250024A8F12000C5B27F2F5D
:1027A00002DD0027B01CC6B2B9F1100F24D13146AA
:1027B0003846FFF7D5FF002408E004EB0511194A5D
:1027C000505C012100F04DF8601CC4B2082CF4DB11
:1027D000701CC1B23846FFF7C3FF002409E004EBC8
:1027E000051108310F4A505C012100F03AF8601CD5
:1027F000C4B2082CF3DB12E031463846FFF7B0FFD5
:1028000000240AE005EB4501074A02EB4101085D9F
:10281000012100F026F8601CC4B2062CF2DBBDE8F2
:10282000F087000060850008388300082DE9F0413A
:1028300005460E4614461F460EE022783B463146BA
:102840002846FFF7A1FF05F10800C5B2782D02DD8B
:102850000025B01CC6B2641C20780028EDD1BDE86C
:10286000F08170B504460D461DB1E0B200F04EF89F
:1028700002E0E0B200F034F870BD00002DE9F04154
:1028800005462C4600224FF480711448FEF708F8E4
:1028900000261FE0274607F08007802F05D1012280
:1028A00051020E48FDF7FCFF05E000224FF40071D5
:1028B0000A48FDF7F5FF6006040E012211020748E1
:1028C000FDF7EEFF00224FF480710448FDF7E8FFAA
:1028D000701CC6B2082EDDDBBDE8F081000C0140A3
:1028E00010B50446FFF762FE7820FFF7C7FFFFF739
:1028F0008BFE0020FFF7C2FFFFF786FE2046FFF7A2
:10290000BDFFFFF781FEFFF76BFE10BD10B504465B
:10291000FFF74CFE7820FFF7B1FFFFF775FE402070
:10292000FFF7ACFFFFF770FE2046FFF7A7FFFFF7AA
:102930006BFEFFF755FE10BD2DE9F047FE4800780D
:10294000002847D1FD480078012843D1FC48007891
:1029500001283FD1FB49084604F06AF9FDF7D4FD90
:10296000F8497231484204F063F90A2003F06AFC26
:102970006FF02C01084604F05BF901231A46991EFA
:10298000184602F0A1FAFFF7BFFDEF49C86804F04E
:1029900064FE0746ED4AEE4B04F08AFE81F00041EA
:1029A000054604F0FDFD0446EA49C86804F055FEFA
:1029B0000746E64AE64B04F07BFE81F000410546FF
:1029C00004F0EEFD8146214604F032F90020E24990
:1029D000087070E2D8480078002848D1D7480078BD
:1029E000012844D1D6480078022840D1D54908466C
:1029F00004F01EF9FDF788FDD249A339484204F0DE
:102A000017F90A2003F01EFC6FF02C01084604F0B1
:102A10000FF94FF0FF331A461946012002F010FC5F
:102A2000FFF772FDC849C86804F017FE0746C74A99
:102A3000C74B04F03DFE81F00041054604F0B0FDB7
:102A40000446C449C86804F008FE0746BF4AC04BA4
:102A500004F02EFE81F00041054604F0A1FD814600
:102A6000214604F0E5F80020BB49087023E2B24893
:102A70000078002847D1B1480078012843D1B048F8
:102A8000007803283FD1AF49084604F0D1F8FDF79C
:102A90003BFDB249484204F0CBF80A2003F0D2FBD8
:102AA0006FF02C01084604F0C3F84FF0FF33012209
:102AB0001946184602F008FAFFF726FDA249C86831
:102AC00004F0CBFD0746A14AA14B04F0F1FD81F0D3
:102AD0000041054604F064FD04469E49C86804F0C0
:102AE000BCFD0746994A9A4B04F0E2FD81F0004193
:102AF000054604F055FD8146214604F099F8002072
:102B000095490870D7E18C480078002848D18B4857
:102B10000078012844D18A480078042840D18949A6
:102B2000084604F085F8FDF7EFFC86496831484215
:102B300004F07EF80A2003F085FB8249DE31084666
:102B400004F076F84FF0FF3301221146104602F0F0
:102B500077FBFFF7D9FC7C49C86804F07EFD074687
:102B60007A4A7B4B04F0A4FD81F00041054604F055
:102B700017FD04467749C86804F06FFD0746734A9D
:102B8000734B04F095FD81F00041054604F008FD0B
:102B90008146214604F04CF800206F4908708AE114
:102BA00065480078002841D16448007801283DD16B
:102BB00063480078052839D16249084604F038F89E
:102BC000FDF7A2FC6FF43371484204F031F80A209B
:102BD00003F038FB5B49E831084604F029F8FFF7B9
:102BE00093FC5949C86804F038FD0746574A584BCA
:102BF00004F05EFD81F00041054604F0D1FC04467E
:102C00005449C86804F029FD0746504A504B04F067
:102C10004FFD81F00041054604F0C2FC814621468B
:102C200004F006F800204C49087044E1424800785E
:102C3000002846D141480078012842D14048007818
:102C400006283ED13F49084603F0F2FFFDF75CFC41
:102C50004249484203F0ECFF0A2003F0F3FA3949F5
:102C6000DE31084603F0E4FF01239A1E11461046A8
:102C700002F0E6FAFFF748FC3349C86804F0EDFCBF
:102C80000746324A324B04F013FD81F000410546FD
:102C900004F086FC04462F49C86804F0DEFC0746B1
:102CA0002A4A2B4B04F004FD81F00041054604F054
:102CB00077FC8146214603F0BBFF002026490870BF
:102CC000F9E01D48007800285CD11C4800780128F4
:102CD00058D11B480078072854D11A49084603F0F8
:102CE000A7FFFDF711FC17496831484203F0A0FF28
:102CF0000A2003F0A7FA13493839084603F098FF71
:102D000001239A1E1946184602F0DEF8FFF7FCFB75
:102D10000D49C86804F0A1FC07460C4A0C4B04F0AE
:102D2000C7FC81F00041054604F03AFC044609491D
:102D3000C86804F092FC13E00000002001000020AD
:102D400002000020E0FDFFFF5C010020CDCCCCCCD8
:102D5000CCCCCC3F3C0100200300002028FCFFFF2E
:102D60000746564A564B04F0A3FC81F00041054645
:102D700004F016FC8146214603F05AFF0020514919
:102D8000087098E050480078F0BB5048007801285F
:102D900045D14F480078082841D14E49084603F0F4
:102DA00047FFFDF7B1FB6FF43371484203F040FF7A
:102DB0000A2003F047FA47493839084603F038FF3C
:102DC00001231A461946981E02F03AFAFFF79CFBB7
:102DD0004149C86804F041FC0746384A384B04F0C2
:102DE00067FC81F00041054604F0DAFB04463B49EC
:102DF000C86804F032FC0746304A314B04F058FCF6
:102E000081F00041054600E009E004F0C9FB81467D
:102E1000214603F00DFF00202A4908704BE02A48A4
:102E20000078E8BB29480078012844D12848007878
:102E3000092840D12749084603F0FAFEFDF764FB54
:102E40002749484203F0F4FE0A2003F0FBF9214928
:102E50003839084603F0ECFE4FF0FF331A460121E3
:102E6000184602F031F8FFF74FFB1B49C86804F021
:102E7000F4FB0746114A124B04F01AFC81F00041A2
:102E8000054604F08DFB04461449C86804F0E5FBD0
:102E900007460A4A0A4B04F00BFC81F0004100E0AF
:102EA00009E0054604F07CFB8146214603F0C0FEA4
:102EB000002004490870BDE8F0870000CDCCCCCCE0
:102EC000CCCCCC3F030000200000002001000020FB
:102ED00002000020E0FDFFFF5C0100203C0100201B
:102EE0001EFCFFFF2DE9F047FE480078002845D181
:102EF000FD480078022841D1FC48007801283DD1E6
:102F0000FB49084603F094FEFDF7FEFAF9494842F2
:102F100003F08EFE0A2003F095F99621084603F08F
:102F200087FE01231A46991E184601F0CDFFFFF7D0
:102F3000EBFAF149C86804F090FB0746EF4AF04B02
:102F400004F0B6FB81F00041054604F029FB04467D
:102F5000EC49C86804F081FB0746E84AE84B04F0F6
:102F6000A7FB81F00041054604F01AFB814621468B
:102F700003F05EFE0020E449087073E2D94800784F
:102F8000002847D1D8480078022843D1D748007894
:102F900002283FD1D649084603F04AFEFDF7B4FAAD
:102FA000D3492131484203F043FE0A2003F04AF995
:102FB0009621084603F03CFE4FF0FF331A461946AF
:102FC000012002F03DF9FFF79FFACB49C86804F0F1
:102FD00044FB0746C94ACA4B04F06AFB81F0004132
:102FE000054604F0DDFA0446C649C86804F035FB1E
:102FF0000746C24AC24B04F05BFB81F00041054624
:1030000004F0CEFA8146214603F012FE0020BE49AC
:10301000087027E2B3480078002847D1B24800780A
:10302000022843D1B148007803283FD1B04908466F
:1030300003F0FEFDFDF768FAAD49F439484203F0AC
:10304000F7FD0A2003F0FEF89621084603F0F0FD94
:103050004FF0FF3301221946184601F035FFFFF704
:1030600053FAA549C86804F0F8FA0746A34AA44BE6
:1030700004F01EFB81F00041054604F091FA04467D
:10308000A049C86804F0E9FA07469C4A9C4B04F042
:103090000FFB81F00041054604F082FA814621468B
:1030A00003F0C6FD002098490870DBE18D480078E8
:1030B000002847D18C480078022843D18B480078FB
:1030C00004283FD18A49084603F0B2FDFDF71CFAF7
:1030D0008849484203F0ACFD0A2003F0B3F86FF0D2
:1030E0007701084603F0A4FD4FF0FF33012211469B
:1030F000104602F0A5F8FFF707FA7F49C86804F008
:10310000ACFA07467D4A7E4B04F0D2FA81F00041CA
:10311000054604F045FA04467A49C86804F09DFA69
:103120000746764A764B04F0C3FA81F00041054623
:1031300004F036FA8146214603F07AFD00207249F8
:1031400008708FE167480078002841D16648007810
:1031500002283DD165480078052839D164490846E0
:1031600003F066FDFDF7D0F961491431484203F0E0
:103170005FFD0A2003F066F86FF07701084603F060
:1031800057FDFFF7C1F95C49C86804F066FA0746C5
:103190005A4A5B4B04F08CFA81F00041054604F07A
:1031A000FFF904465749C86804F057FA0746534ADE
:1031B000534B04F07DFA81F00041054604F0F0F92C
:1031C0008146214603F034FD00204F49087049E153
:1031D00044480078002847D143480078022843D16A
:1031E0004248007806283FD14149084603F020FDB7
:1031F000FDF78AF96FF47971484203F019FD0A204E
:1032000003F020F86FF07701084603F011FD012369
:103210009A1E1146104602F013F8FFF775F9364969
:10322000C86804F01AFA0746344A354B04F040FAED
:1032300081F00041054604F0B3F904463149C868FD
:1032400004F00BFA07462D4A2D4B04F031FA81F0B9
:103250000041054604F0A4F98146214603F0E8FC4C
:10326000002029490870FDE01E48007800285CD144
:103270001D480078022858D11C480078072854D1EE
:103280001B49084603F0D4FCFDF73EF919494842B2
:1032900003F0CEFC0A2002F0D5FF6FF4C671084699
:1032A00003F0C6FC01239A1E1946184601F00CFED5
:1032B000FFF72AF91049C86804F0CFF907460F4A0A
:1032C0000F4B04F0F5F981F00041054604F068F970
:1032D00004460C49C86804F0C0F90746074A084B81
:1032E00014E0000000000020010000200200002087
:1032F0001CFDFFFF52FEFFFF5C010020CDCCCCCCBB
:10330000CCCCCC3F3C0100200300002004F0D0F9DD
:1033100081F00041054604F043F98146214603F05F
:1033200087FC0020504908709CE050480078E8BBBA
:103330004F480078022845D14E480078082841D1EE
:103340004D49084603F074FCFDF7DEF84A491E318A
:10335000484203F06DFC0A2002F074FF6FF4C6715E
:10336000084603F065FC01231A461946981E01F031
:1033700067FFFFF7C9F84149C86804F06EF90746CE
:103380003F4A404B04F094F981F00041054604F0B7
:1033900007F904463C49C86804F05FF90746384A13
:1033A000384B04F085F981F0004100E00AE0054661
:1033B00004F0F6F88146214603F03AFC00202A4941
:1033C00008704FE029480078E8BB294800780228B7
:1033D00048D128480078092844D12749084603F0F5
:1033E00027FCFDF791F86FF47971484203F020FC57
:1033F0000A2002F027FF6FF4C671084603F018FC9C
:103400002248007830B14FF0FF331A4601211846A8
:1034100001F05AFDFFF778F81849C86804F01DF963
:103420000746174A174B04F043F981F0004105465F
:1034300004F0B6F804461449C86804F00EF90746CB
:103440000F4A104B00E00DE004F032F981F000412A
:10345000054604F0A5F88146214603F0E9FB00206B
:1034600001490870BDE8F08703000020000000203B
:1034700001000020020000201CFDFFFF5C01002075
:10348000CDCCCCCCCCCCCC3F3C0100200C000020DF
:103490002DE9F047FE480078002846D1FD48007825
:1034A000032842D1FC48007801283ED1FB49084658
:1034B00003F0BEFBFDF728F8F949484203F0B8FBDA
:1034C0000A2002F0BFFE40F27711084603F0B0FB7D
:1034D00001231A46991E184601F0F6FCFFF714F86E
:1034E000F049C86804F0B9F80746EF4AEF4B04F01A
:1034F000DFF881F00041054604F052F80446EC493B
:10350000C86804F0AAF80746E74AE84B04F0D0F888
:1035100081F00041054604F043F88146214603F05E
:1035200087FB0020E349087005E2D94800780028AD
:1035300047D1D8480078032843D1D74800780228DB
:103540003FD1D649084603F073FBFCF7DDFFDA49AB
:10355000484203F06DFB0A2002F074FE40F277113E
:10356000084603F065FB4FF0FF331A461946012069
:1035700001F066FEFEF7C8FFCA49C86804F06DF89E
:103580000746C94AC94B04F093F881F0004105464B
:1035900004F006F80446C649C86804F05EF8074619
:1035A000C14AC24B04F084F881F00041054603F0A3
:1035B000F7FF8146214603F03BFB0020BD49087020
:1035C000B9E1B3480078002848D1B2480078032810
:1035D00044D1B1480078032840D1B049084603F0EF
:1035E00027FBFCF791FFAD490E39484203F020FB61
:1035F0000A2002F027FE40F27711084603F018FB7C
:103600004FF0FF3301221946184601F05DFCFEF72A
:103610007BFFA449C86804F020F80746A24AA34BE0
:1036200004F046F881F00041054603F0B9FF044676
:103630009F49C86804F011F807469B4A9B4B04F069
:1036400037F881F00041054603F0AAFF8146214684
:1036500003F0EEFA0020974908706CE18C4800787E
:10366000002847D18B480078032843D18A48007846
:1036700004283FD18949084603F0DAFAFCF744FFF1
:103680006FF4D971484203F0D3FA0A2002F0DAFD50
:103690006E21084603F0CCFA4FF0FF3301221146A9
:1036A000104601F0CDFDFEF72FFF7E49C86803F0FC
:1036B000D4FF07467C4A7D4B03F0FAFF81F00041BE
:1036C000054603F06DFF04467949C86803F0C5FF5D
:1036D0000746754A754B03F0EBFF81F00041054644
:1036E00003F05EFF8146214603F0A2FA00207149F3
:1036F000087020E166480078002840D165480078CD
:1037000003283CD164480078052838D1634908462D
:1037100003F08EFAFCF7F8FE6749491F484203F0B0
:1037200087FA0A2002F08EFD6E21084603F080FA27
:10373000FEF7EAFE5B49C86803F08FFF07465A4A66
:103740005A4B03F0B5FF81F00041054603F028FF16
:1037500004465749C86803F080FF0746524A534B56
:1037600003F0A6FF81F00041054603F019FF8146F2
:10377000214603F05DFA00204E490870DBE0444822
:103780000078002846D143480078032842D14248B7
:10379000007806283ED14149084603F049FAFCF773
:1037A000B3FE3E491439484203F042FA0A2002F0BF
:1037B00049FD6E21084603F03BFA01239A1E11468B
:1037C000104601F03DFDFEF79FFE3649C86803F044
:1037D00044FF0746344A354B03F06AFF81F000414D
:1037E000054603F0DDFE04463149C86803F035FFA5
:1037F00007462D4A2D4B03F05BFF81F00041054643
:1038000003F0CEFE8146214603F012FA002029493A
:10381000087090E01E48007800287DD11D4800788F
:10382000032879D11C480078072875DB1A480078EE
:10383000092871DC1949084603F0FAF9FCF764FE1F
:10384000154A1278D21F40F215135A436FF4D973F8
:10385000991A114A1278D21F40F215135A4302F2F4
:10386000B31003F0E5F90A2002F0ECFC6FF0A601BA
:10387000084603F0DDF90848007809281ED14FF00A
:10388000FF331A460121184601F01EFB2BE0000011
:1038900000000020010000200200002036FCFFFF95
:1038A00052FEFFFF5C010020CDCCCCCCCCCCCC3F79
:1038B0003C010020030000203DFDFFFF1F48007871
:1038C000072806D101239A1E1946184601F0FCFA72
:1038D00009E01A480078082805D101231A4619463C
:1038E000981E01F0ADFCFEF70FFE1549C86803F005
:1038F000B4FE0746134A144B03F0DAFE81F0004190
:10390000054603F04DFE04461049C86803F0A5FEC5
:1039100007460C4A0C4B00E00DE003F0C9FE81F0B5
:103920000041054603F03CFE8146214603F080F944
:10393000002007490870BDE8F08700000200002061
:103940005C010020CDCCCCCCCCCCCC3F3C010020C9
:10395000030000202DE9F047AF480078002874D11B
:10396000AE480078042870D1AD48007801286CDB9F
:10397000AB480078032868DCAA49084603F058F9E8
:10398000FCF7C2FDA64A1278521E40F215135A43A4
:103990006FF4D973991AA24A1278521E40F2151385
:1039A0005A4302F2B31003F043F90A2002F04AFC32
:1039B00040F24521084603F03BF999480078012878
:1039C00006D101231A46811E184601F07DFA14E043
:1039D00093480078022806D1C31E1A4619460120D2
:1039E00001F02EFC09E08E480078032805D1031F62
:1039F00001221946184601F067FAFEF785FD8A494B
:103A0000C86803F02AFE0746884A894B03F050FE37
:103A100081F00041054603F0C3FD04468549C868AE
:103A200003F01BFE0746814A814B03F041FE81F003
:103A30000041054603F0B4FD8146214603F0F8F845
:103A400000207D490870E4E0FFE773480078002813
:103A500068D172480078042864D17148007804283D
:103A600060DB6F48007806285CDC6E49084603F08E
:103A7000DFF8FCF749FD6A4A1278121F40F215136D
:103A80005A436FF4D973991A654A1278121F40F29B
:103A900015135A4302F2B31003F0CAF80A2002F0D9
:103AA000D1FB4FF49B71084603F0C2F85C480078E4
:103AB000062806D10123C21F1146104601F0C0FBA3
:103AC00009E057480078042805D1431F0122114618
:103AD000104601F0B5FBFEF717FD5349C86803F027
:103AE000BCFD0746514A524B03F0E2FD81F0004114
:103AF000054603F055FD04464E49C86803F0ADFD88
:103B000007464A4A4A4B03F0D3FD81F0004105467F
:103B100003F046FD8146214603F08AF8002046491D
:103B2000087076E03C480078002872D13B48007865
:103B300004286ED13A48007807286ADB38480078B4
:103B4000092866DC3749084603F072F8FCF7DCFC0C
:103B5000334A1278D21F40F215135A436FF4D973C7
:103B6000991A2F4A1278D21F40F215135A4302F2C3
:103B7000B31003F05DF80A2002F064FB2821084628
:103B800003F056F826480078092807D14FF0FF3394
:103B90001A460121184601F097F914E020480078F0
:103BA000072806D101239A1E1946184601F08CF900
:103BB00009E01B480078082805D101231A46194658
:103BC000981E01F03DFBFEF79FFC1749C86803F003
:103BD00044FD0746154A164B03F06AFD81F000418B
:103BE000054603F0DDFC04461249C86803F035FDC4
:103BF00007460E4A0E4B03F05BFD81F0004105467F
:103C000003F0CEFC8146214603F012F800200A4959
:103C10000870BDE8F08700000000002001000020CF
:103C20000200002068FBFFFF5C010020CDCCCCCC63
:103C3000CCCCCC3F3C010020030000202DE9F04714
:103C4000AF480078002874D1AE480078052870D1BC
:103C5000AD48007801286CDBAB480078032868DCAD
:103C6000AA49084602F0E4FFFCF74EFCA64A127887
:103C7000521E40F215135A436FF4D973991AA24A8F
:103C80001278521E40F215135A4302F2B31002F09A
:103C9000CFFF0A2002F0D6FA40F21631084602F0B1
:103CA000C7FF99480078012806D101231A46811ED2
:103CB000184601F009F914E093480078022806D16B
:103CC000C31E1A461946012001F0BAFA09E08E48CF
:103CD0000078032805D1031F01221946184601F078
:103CE000F3F8FEF711FC8A49C86803F0B6FC0746F2
:103CF000884A894B03F0DCFC81F00041054603F063
:103D00004FFC04468549C86803F0A7FC0746814A72
:103D1000814B03F0CDFC81F00041054603F040FCEF
:103D20008146214602F084FF00207D490870E4E0CE
:103D3000FFE773480078002868D1724800780528AA
:103D400064D171480078042860DB6F480078062849
:103D50005CDC6E49084602F06BFFFCF7D5FB6A4A53
:103D60001278121F40F215135A436FF4D973991A3F
:103D7000654A1278121F40F215135A4302F2B3102B
:103D800002F056FF0A2002F05DFA4FF40271084675
:103D900002F04EFF5C480078062806D10123C21FBE
:103DA0001146104601F04CFA09E057480078042803
:103DB00005D1431F01221146104601F041FAFEF7DA
:103DC000A3FB5349C86803F048FC0746514A524BCD
:103DD00003F06EFC81F00041054603F0E1FB044670
:103DE0004E49C86803F039FC07464A4A4A4B03F07B
:103DF0005FFC81F00041054603F0D2FB814621467D
:103E000002F016FF00204649087076E03C48007832
:103E1000002872D13B48007805286ED13A480078D6
:103E200007286ADB38480078092866DC37490846E5
:103E300002F0FEFEFCF768FB334A1278D21F40F214
:103E400015135A436FF4D973991A2F4A1278D21F57
:103E500040F215135A4302F2B31002F0E9FE0A20B1
:103E600002F0F0F9FF21084602F0E2FE2648007851
:103E7000092807D14FF0FF331A460121184601F0F7
:103E800023F814E020480078072806D101239A1E61
:103E90001946184601F018F809E01B480078082870
:103EA00005D101231A461946981E01F0C9F9FEF7FB
:103EB0002BFB1749C86803F0D0FB0746154A164B81
:103EC00003F0F6FB81F00041054603F069FB044670
:103ED0001249C86803F0C1FB07460E4A0E4B03F0B7
:103EE000E7FB81F00041054603F05AFB814621467D
:103EF00002F09EFE00200A490870BDE8F08700002D
:103F000000000020010000200200002092FAFFFFC4
:103F10005C010020CDCCCCCCCCCCCC3F3C010020F3
:103F2000030000202DE9F047BA48007801287BD132
:103F3000B9480078012877D1B8480078012873DBA8
:103F4000B648007803286FDCB549484202F070FE9D
:103F50000A2002F077F9B349084602F069FEFCF73F
:103F6000D3FAAE4A1278C2F1030240F215135A4353
:103F700002F5CD71A94A1278C2F103025A43A94B46
:103F80008233981A02F054FE0A2002F05BF96FF0B7
:103F90002C01084602F04CFEA0480078012806D10A
:103FA00001231A46811E184600F08EFF14E09B483C
:103FB0000078022806D1C31E1A461946012001F0D6
:103FC0003FF909E095480078032805D1031F012235
:103FD0001946184600F078FFFEF796FA9249C8682D
:103FE00003F03BFB0746914A914B03F061FB81F0E4
:103FF0000041054603F0D4FA04468E49C86803F030
:104000002CFB0746894A8A4B03F052FB81F00041A2
:10401000054603F0C5FA8146214602F009FE00205C
:1040200085490870F4E0FFE77A480078012870D1EC
:104030007948007801286CD178480078042868DB3A
:1040400076480078062864DC7549484202F0F0FDA5
:104050000A2002F0F7F87349084602F0E9FDFCF780
:1040600053FA6E4A1278C2F1060240F215135A430F
:1040700002F5CD71694A1278C2F106025A43694BC2
:104080008233981A02F0D4FD0A2002F0DBF8654969
:10409000DA31084602F0CCFD60480078062806D1E7
:1040A0000123C21F1146104601F0CAF809E05B481F
:1040B0000078042805D1431F01221146104601F063
:1040C000BFF8FEF721FA5849C86803F0C6FA074658
:1040D000564A574B03F0ECFA81F00041054603F0D5
:1040E0005FFA04465349C86803F0B7FA07464F4AD7
:1040F0004F4B03F0DDFA81F00041054603F050FA22
:104100008146214602F094FD00204B4908707FE073
:10411000FFE74048007801287AD13F48007801281D
:1041200076D13E480078072872DB3C4800780928A1
:104130006EDC3B49484202F07BFD0A2002F082F827
:104140003849084602F074FDFCF7DEF9334A12786C
:10415000C2F1090240F215135A4302F5CD712F4AFC
:104160001278C2F109025A432E4B8233981A02F098
:104170005FFD0A2002F066F82A493C39084602F041
:1041800057FD26480078092807D14FF0FF331A461B
:104190000121184600F098FE14E020480078072816
:1041A00006D101239A1E1946184600F08DFE09E03B
:1041B0001A480078082805D101231A461946981E86
:1041C00001F03EF8FEF7A0F91749C86803F045FA78
:1041D0000746164A164B03F06BFA81F0004105467C
:1041E00003F0DEF904461349C86803F036FA0746BF
:1041F0000E4A0F4B03F05CFA81F00041054603F0D4
:10420000CFF98146214602F013FD00200A490870CB
:10421000BDE8F0870000002001000020020000201F
:1042200088FAFFFFE4FDFFFF5C010020CDCCCCCC81
:10423000CCCCCC3F3C010020030000202DE9F0470E
:10424000B8480078012879D1B7480078022875D19C
:10425000B6480078012871DBB448007803286DDC8B
:10426000B349484202F0E4FC0A2001F0EBFFB149F7
:10427000084602F0DDFCFCF747F9AC4A1278C2F1BF
:10428000030240F215135A4302F5D271A74A12787D
:10429000C2F103025A43A84B981A02F0C9FC0A2043
:1042A00001F0D0FF9121084602F0C2FC9F4800783F
:1042B000012806D101231A46811E184600F004FE8B
:1042C00014E09A480078022806D1C31E1A461946FF
:1042D000012000F0B5FF09E094480078032805D1DB
:1042E000031F01221946184600F0EEFDFEF70CF9F7
:1042F0009249C86803F0B1F90746914A914B03F01F
:10430000D7F981F00041054603F04AF904468E4989
:10431000C86803F0A2F90746894A8A4B03F0C8F936
:1043200081F00041054603F03BF98146214602F049
:104330007FFC002085490870F2E0FFE779480078AB
:1043400001286FD17848007802286BD1774800782F
:10435000042867DB75480078062863DC7449484206
:1043600002F066FC0A2001F06DFF7249084602F077
:104370005FFCFCF7C9F86D4A1278C2F1060240F200
:1043800015135A4302F5D271684A1278C2F1060237
:104390005A43694B981A02F04BFC0A2001F052FF75
:1043A0006FF07701084602F043FC60480078062869
:1043B00006D10123C21F1146104600F041FF09E05B
:1043C0005A480078042805D1431F0122114610469F
:1043D00000F036FFFEF798F85849C86803F03DF939
:1043E0000746574A574B03F063F981F000410546F1
:1043F00003F0D6F804465449C86803F02EF907467E
:104400004F4A504B03F054F981F00041054603F048
:10441000C7F88146214602F00BFC00204B4908708A
:104420007EE0FFE73F480078012879D13E480078D8
:10443000022875D13D480078072871DB3B48007899
:1044400009286DDC3A49484202F0F2FB0A2001F0EB
:10445000F9FE3849084602F0EBFBFCF755F8334A01
:104460001278C2F1090240F215135A4302F5D271D3
:104470002E4A1278C2F109025A432F4B981A02F0C1
:10448000D7FB0A2001F0DEFE6FF4C671084602F089
:10449000CFFB26480078092807D14FF0FF331A4692
:1044A0000121184600F010FD14E02048007807288C
:1044B00006D101239A1E1946184600F005FD09E0B1
:1044C0001A480078082805D101231A461946981E73
:1044D00000F0B6FEFEF718F81849C86803F0BDF8FA
:1044E0000746174A174B03F0E3F881F000410546F1
:1044F00003F056F804461449C86803F0AEF80746BE
:104500000F4A104B03F0D4F881F00041054603F048
:1045100047F88146214602F08BFB00200B490870CA
:10452000BDE8F0870000002001000020020000200C
:104530007EFAFFFF20FDFFFF5CFEFFFF5C01002015
:10454000CDCCCCCCCCCCCC3F3C0100200300002017
:104550002DE9F047BA48007801287BD1B9480078A6
:10456000032877D1B8480078012873DBB648007873
:1045700003286FDCB549484202F05AFB0A2001F0DB
:1045800061FE6FF46B71084602F052FBFBF7BCFF53
:10459000AD4A1278C2F1030240F215135A4302F5F4
:1045A000D271A94A1278C2F103025A43A84B981A51
:1045B00002F03EFB0A2001F045FE4FF4AF710846C1
:1045C00002F036FBA0480078012806D101231A46E4
:1045D000811E184600F078FC14E09B480078022801
:1045E00006D1C31E1A461946012000F029FE09E033
:1045F00095480078032805D1031F01221946184663
:1046000000F062FCFDF780FF9249C86803F025F8CE
:104610000746914A914B03F04BF881F00041054663
:1046200002F0BEFF04468E49C86803F016F807463C
:10463000894A8A4B03F03CF881F00041054602F0BC
:10464000AFFF8146214602F0F3FA00208549087049
:10465000F3E0FFE77A48007801286FD179480078C5
:1046600003286BD178480078042867DB7648007807
:10467000062863DC7549484202F0DAFA0A2001F0A4
:10468000E1FD6FF46B71084602F0D2FAFBF73CFFD4
:104690006D4A1278C2F1060240F215135A4302F530
:1046A000D271694A1278C2F106025A43684B981ACD
:1046B00002F0BEFA0A2001F0C5FD5021084602F0C2
:1046C000B7FA61480078062806D10123C21F1146B7
:1046D000104600F0B5FD09E05B480078042805D1DC
:1046E000431F01221146104600F0AAFDFDF70CFF02
:1046F0005849C86802F0B1FF0746574A574B02F0C5
:10470000D7FF81F00041054602F04AFF04465449B4
:10471000C86802F0A2FF07464F4A504B02F0C8FF9C
:1047200081F00041054602F03BFF8146214602F040
:104730007FFA00204B4908707FE0FFE7404800788F
:1047400001287AD13F480078032876D13E48007886
:10475000072872DB3C48007809286EDC3B49484258
:1047600002F066FA0A2001F06DFD6FF46B710846E5
:1047700002F05EFAFBF7C8FE334A1278C2F1090272
:1047800040F215135A4302F5D2712F4A1278C2F142
:1047900009025A432E4B981A02F04AFA0A2001F0F5
:1047A00051FD6FF0C401084602F042FA2648007835
:1047B000092807D14FF0FF331A460121184600F0AF
:1047C00083FB14E020480078072806D101239A1EB5
:1047D0001946184600F078FB09E01B4800780828C5
:1047E00005D101231A461946981E00F029FDFDF750
:1047F0008BFE1849C86802F030FF0746164A174B6F
:1048000002F056FF81F00041054602F0C9FE044661
:104810001349C86802F021FF07460F4A0F4B02F008
:1048200047FF81F00041054602F0BAFE814621466D
:1048300002F0FEF900200B490870BDE8F087000087
:104840000000002001000020020000207EFAFFFF8F
:104850005CFEFFFF5C010020CDCCCCCCCCCCCC3FAF
:104860003C010020030000202DE9F047BA48007801
:1048700001287BD1B9480078042877D1B84800785E
:10488000012873DBB648007803286FDCB54948423D
:1048900002F0CEF90A2001F0D5FCB249F531084604
:1048A00002F0C6F9FBF730FEAD4A1278C2F10302FE
:1048B00040F215135A4302F5D271A94A1278C2F197
:1048C00003025A43A84B981A02F0B2F90A2001F0E9
:1048D000B9FC40F23A21084602F0AAF9A048007853
:1048E000012806D101231A46811E184600F0ECFA71
:1048F00014E09B480078022806D1C31E1A461946C8
:10490000012000F09DFC09E095480078032805D1BE
:10491000031F01221946184600F0D6FAFDF7F4FDF0
:104920009249C86802F099FE0746914A914B02F0FD
:10493000BFFE81F00041054602F032FE04468E497A
:10494000C86802F08AFE0746894A8A4B02F0B0FE28
:1049500081F00041054602F023FE8146214602F027
:1049600067F9002085490870F3E0FFE77A4800788E
:10497000012870D17948007804286CD178480078F3
:10498000042868DB76480078062864DC75494842CC
:1049900002F04EF90A2001F055FC7249F531084643
:1049A00002F046F9FBF7B0FD6D4A1278C2F106023B
:1049B00040F215135A4302F5D271694A1278C2F1D6
:1049C00006025A43684B981A02F032F90A2001F0A5
:1049D00039FC40F23111084602F02AF960480078AB
:1049E000062806D10123C21F1146104600F028FCFC
:1049F00009E05B480078042805D1431F01221146D5
:104A0000104600F01DFCFDF77FFD5849C86802F014
:104A100024FE0746564A574B02F04AFE81F00041F9
:104A2000054602F0BDFD04465349C86802F015FE74
:104A300007464F4A4F4B02F03BFE81F000410546CE
:104A400002F0AEFD8146214602F0F2F800204B490B
:104A500008707EE0FFE740480078012879D13F48A0
:104A60000078042875D13E480078072871DB3C485F
:104A7000007809286DDC3B49484202F0D9F80A2049
:104A800001F0E0FB3749F531084602F0D1F8FBF7B9
:104A90003BFD334A1278C2F1090240F215135A4322
:104AA00002F5D2712E4A1278C2F109025A432E4BF6
:104AB000981A02F0BDF80A2001F0C4FB1E21084636
:104AC00002F0B6F826480078092807D14FF0FF33E6
:104AD0001A460121184600F0F7F914E02048007842
:104AE000072806D101239A1E1946184600F0ECF952
:104AF00009E01B480078082805D101231A46194609
:104B0000981E00F09DFBFDF7FFFC1849C86802F0F5
:104B1000A4FD0746164A174B02F0CAFD81F000417A
:104B2000054602F03DFD04461349C86802F095FDB4
:104B300007460F4A0F4B02F0BBFD81F000410546CE
:104B400002F02EFD8146214602F072F800200B494A
:104B50000870BDE8F0870000000000200100002080
:104B6000020000207EFAFFFF5CFEFFFF5C010020D8
:104B7000CDCCCCCCCCCCCC3F3C01002003000020E1
:104B80002DE9F047BC48007801287BD1BB4800786C
:104B9000052877D1BA480078012873DBB848007837
:104BA00003286FDCB749484202F042F80A2001F0BE
:104BB00049FBB4492831084602F03AF8FBF7A4FC57
:104BC000AF4A1278C2F1030240F215135A4302F5BC
:104BD000D271AB4A1278C2F103025A43AA4B981A17
:104BE00002F026F80A2001F02DFB40F207310846BA
:104BF00002F01EF8A2480078012806D101231A46C7
:104C0000811E184600F060F914E09D4800780228E3
:104C100006D1C31E1A461946012000F011FB09E017
:104C200097480078032805D1031F0122194618462A
:104C300000F04AF9FDF768FC9449C86802F00DFDE0
:104C40000746934A934B02F033FD81F0004105463D
:104C500002F0A6FC04469049C86802F0FEFC074634
:104C60008B4A8C4B02F024FD81F00041054602F096
:104C700097FC8146214601F0DBFF00208749087040
:104C8000F7E0FFE77C480078012872D17B48007884
:104C900005286ED17A48007804286ADB78480078C5
:104CA000062866DC77490A39484201F0C1FF0A202C
:104CB00001F0C8FA73492831084601F0B9FFFBF743
:104CC00023FC6F4A1278C2F1060240F215135A43D0
:104CD00002F2A9116A4A1278C2F106025A436FF42D
:104CE000D473981A01F0A4FF0A2001F0ABFA4FF434
:104CF000FF71084601F09CFF61480078062806D144
:104D00000123C21F1146104600F09AFA09E05C48E0
:104D10000078042805D1431F01221146104600F0F7
:104D20008FFAFDF7F1FB5949C86802F096FC074677
:104D3000574A584B02F0BCFC81F00041054602F096
:104D40002FFC04465449C86802F087FC0746504AC5
:104D5000504B02F0ADFC81F00041054602F020FC12
:104D60008146214601F064FF00204C49087080E034
:104D7000FFE74148007801287BD1404800780528AA
:104D800077D13F480078072873DB3D480078092831
:104D90006FDC3C490A39484201F04AFF0A2001F021
:104DA00051FA38492831084601F042FFFBF7ACFBC5
:104DB000334A1278C2F1090240F215135A4302F243
:104DC000A9112F4A1278C2F109025A436FF4D47321
:104DD000981A01F02DFF0A2001F034FAE621084666
:104DE00001F026FF26480078092807D14FF0FF334D
:104DF0001A460121184600F067F814E020480078B0
:104E0000072806D101239A1E1946184600F05CF8BF
:104E100009E01B480078082805D101231A461946E5
:104E2000981E00F00DFAFDF76FFB1849C86802F0F4
:104E300014FC0746164A174B02F03AFC81F0004179
:104E4000054602F0ADFB04461349C86802F005FCB4
:104E500007460F4A0F4B02F02BFC81F0004105463C
:104E600002F09EFB8146214601F0E2FE00200B4944
:104E70000870BDE8F087000000000020010000205D
:104E8000020000207EFAFFFF5CFEFFFF5C010020B5
:104E9000CDCCCCCCCCCCCC3F3C01002003000020BE
:104EA00008B508490968C9084FF47A72B1FBF2F1F4
:104EB0004143009100BF00BF00994A1E00920029A3
:104EC000F9D108BD280000202DE9F04F8BB0044631
:104ED0000D4616469946CD48007800287DD0002121
:104EE000CB48006803F0CDF878D2C9480168C948BA
:104EF00003F0F8F807464FF0804102F04DFFC64935
:104F00000860C348006802F0ADFE8246C34AC44B45
:104F100002F0CEFB07460022C24B02F0E9F9CDE9D0
:104F2000000101F02DF90022BF4BCDE9020102F092
:104F3000BFFB0022BC4BCDE9040102F0B7FCCDE978
:104F4000060101F0FFFECDE9080102F0EFF8B749D4
:104F50000860B148006802F085FEB04AB04BCDE968
:104F6000020102F0A5FB0022AE4BCDE9040102F0E4
:104F7000BFF9CDE9060101F095FE07468846AB482A
:104F8000006802F06FFE3A464346CDE9080102F0A0
:104F90008FFB824602F0CAF8A54908609E48006867
:104FA00002F060FE82469D4A9D4B02F081FB07465F
:104FB00000229C4B02F09CF9CDE9020101F0E0F8DF
:104FC000CDE906019948006802F04CFECDE90401E4
:104FD000DDE9062302F06CFB01E014E148E0CDE9D5
:104FE000080102F0A3F8934908609148006802F0B4
:104FF00039FE914A914BCDE9080102F059FB074671
:1050000002F0CEFA00FB05FA8948006802F02AFE99
:105010000746894A894B02F04BFBCDE9080102F0B3
:10502000BFFA00FB04FB5146584601F001FE8148DF
:10503000006802F017FE82467F4A804B02F038FB80
:10504000074602F0ADFA00FB09F0099079480068C4
:1050500002F008FE0746784A784B02F029FB8246A8
:1050600002F09EFA70430890099901F0E1FDCAE050
:1050700000216748006802F085FFF8D264480068A4
:1050800080F000406249086008460168614803F00A
:1050900029F807464FF0804102F07EFE5E49086025
:1050A0005B48006802F0DEFD5C4A5D4BCDE9000123
:1050B00002F0FEFA074600225A4B02F019F9824626
:1050C00001F05EF80022584BCDE9020102F0F0FA3F
:1050D0000022554BCDE9040102F0E8FBCDE90601C1
:1050E00001F030FECDE9080102F020F84F490860D8
:1050F0004948006802F0B6FD8246484A484B02F033
:10510000D7FA07460022474B02F0F2F8CDE9020138
:1051100001F0C8FDCDE906014448006802F0A2FD97
:10512000CDE90401DDE9062302F0C2FACDE9080168
:1051300001F0FCFF3E4908603748006802F092FD2C
:10514000364A374BCDE9020102F0B2FA0022354B64
:10515000CDE9040102F0CCF8074601F011F8CDE9E1
:1051600008013248006802F07DFDCDE90601DDE965
:10517000082302F09DFA824601F0D8FF2D4908600D
:105180002B48006802F06EFD07462B4A2B4B02F0BD
:105190008FFA824602F004FAC9F1000148430990EF
:1051A0002348006802F05EFD8246234A234B02F04A
:1051B0007FFA074602F0F4F97142484308900999D2
:1051C00001F036FD1B48006802F04CFD82461A4A89
:1051D0001A4B02F06DFA074602F0E2F969424843C1
:1051E00009901448006802F03DFD0746124A134B2F
:1051F00002F05EFA824602F0D3F961424843089019
:10520000099901F015FD0BB0BDE8F08F0C000020EE
:105210001000002000003443140000206F1283C0EF
:10522000CA2109400080664000A4AF401800002059
:105230001C000020200000204260E5D022DB21403D
:105240002DE9F04F8BB004460D4616469946CB48E3
:10525000007800287DD00021C948006802F011FFC5
:1052600078D2C7480168C74802F03CFF07464FF0B4
:10527000804102F091FDC4490860C148006802F015
:10528000F1FCC24AC24BCDE9000102F011FA002242
:10529000C04BCDE9020102F02BF8074600F070FF89
:1052A00082460022BC4B02F003FA0022BA4BCDE941
:1052B000040102F0FBFACDE9060101F043FDCDE95E
:1052C000080101F033FFB5490860AF48006802F0FB
:1052D000C9FCAE4AAE4BCDE9020102F0E9F9002269
:1052E000AC4BCDE9040102F003F8CDE9060101F071
:1052F000D9FC07468846A948006802F0B3FC3A4644
:105300004346CDE9080102F0D3F9824601F00EFFD1
:10531000A34908609C48006802F0A4FC82469B4AAE
:105320009B4B02F0C5F9074600229A4B01F0E0FFC3
:10533000CDE9020100F024FFCDE90601974800689D
:1053400002F090FCCDE90401DDE9062302F0B0F99A
:1053500001E00FE145E0CDE9080101F0E7FE9149E8
:1053600008608F48006802F07DFC82468E4A8F4BB1
:1053700002F09EF9074602F013F968430990884845
:10538000006802F06FFC0746874A884B02F090F9EC
:10539000824602F005F960430890099901F048FC43
:1053A0008048006802F05EFC82467F4A7F4B02F034
:1053B0007FF9074602F0F4F800FB09F009907948FC
:1053C000006802F04FFC8246774A784B02F070F991
:1053D000074602F0E5F870430890099901F028FCAF
:1053E000C8E000216648006802F0CCFDF8D26448AD
:1053F000006880F000406249086008460168614822
:1054000002F070FE07464FF0804102F0C5FC5E4995
:1054100008605B48006802F025FC07465B4A5C4B6D
:1054200002F046F9824600225A4B01F061FFCDE9B5
:10543000000100F0A5FE0022574BCDE9020102F069
:1054400037F90022544BCDE9040102F02FFACDE9DF
:10545000060101F077FCCDE9080101F067FE4F4934
:1054600008604948006802F0FDFB0746474A484B80
:1054700002F01EF982460022464B01F039FFCDE9C9
:10548000020101F00FFCCDE906014448006802F07A
:10549000E9FBCDE90401DDE9062302F009F9CDE9D4
:1054A000080101F043FE3E4908603748006802F0F9
:1054B000D9FB364A364BCDE9020102F0F9F8002259
:1054C000344BCDE9040101F013FF074600F058FE0C
:1054D000CDE908013148006802F0C4FBCDE90601BE
:1054E000DDE9082302F0E4F8824601F01FFE2D49B1
:1054F00008602B48006802F0B5FB82462A4A2B4B15
:1055000002F0D6F8074602F04BF86942484309908A
:105510002348006802F0A6FB8246234A234B02F090
:10552000C7F8074602F03CF86142484308900999E1
:1055300001F07EFB1B48006802F094FB82461A4A89
:105540001A4B02F0B5F8074602F02AF800FB09F002
:1055500009901448006802F085FB8246124A134BFA
:1055600002F0A6F8074602F01BF87043089009996C
:1055700001F05EFB0BB0BDE8F08F00000C000020D6
:105580001000002000003443140000206F1283C07C
:10559000CA210940008066400000A0401800002099
:1055A0001C000020200000204260E5D022DB2140CA
:1055B0007047704710B50248FBF79DFE10BD000014
:1055C0006C01002010B50248FBF795FE10BD0000ED
:1055D0001802002010B50248FBF78DFE10BD000038
:1055E000D001002010B50268184B984208D0B0F1E5
:1055F000804F05D0164B984202D0164B984203D1EB
:1056000022F070024B681A43104B984208D0B0F158
:10561000804F05D00E4B984202D00E4B984203D1DA
:1056200022F44072CB681A4322F080034C6943EAAB
:10563000040202608B68C3620B688362034B98426A
:1056400001D10B6903630123436110BD002C0140AC
:10565000000400400008004030B501F01F0501249F
:1056600004FA05F3046A9C430462046A01F01F050E
:1056700002FA05F52C43046230BD000030B5056A1E
:1056800025F001050562026A4368846924F070040C
:1056900024F003040D682C4322F002028D682A4393
:1056A0000D4DA84206D100BF22F00802CD682A4362
:1056B00022F00402084DA84207D123F4807323F49A
:1056C00000734D692B438D692B43436084614D68A2
:1056D0004563026230BD0000002C014030B5056A10
:1056E00025F010050562026A4368846924F4E044E9
:1056F00024F440740D6844EA052422F020028D68E9
:1057000042EA05120E4DA84207D100BF22F08002E6
:10571000CD6842EA051222F04002094DA84209D1A3
:1057200023F4806323F400634D6943EA85038D69A4
:1057300043EA8503436084614D688563026230BD3E
:10574000002C014030B5056A25F480750562026AB7
:105750004368C46924F0700424F003040D682C43EA
:1057600022F400728D6842EA05220F4DA84207D14B
:1057700000BF22F40062CD6842EA052222F4806272
:10578000094DA84209D123F4805323F400534D69F5
:1057900043EA05138D6943EA05134360C4614D680C
:1057A000C563026230BD0000002C014030B5056ABF
:1057B00025F480550562036A4468C26922F4E04218
:1057C00022F440720D6842EA052223F400538D68EA
:1057D00043EA0533064DA84204D124F480444D69C0
:1057E00044EA85144460C2614D680564036230BDBB
:1057F000002C014070B504462168096921F440512C
:10580000E2681143226811612269A168114362694B
:1058100041EA02052168C96841F20C6291432943BB
:105820002268D1602168496921F44071A26911435D
:10583000226851612D4A2168914202D1FBF7B6F9E5
:1058400001E0FBF7A3F900EBC00101EB0011626876
:105850009200B1FBF2F100EBC00202EB00126368B0
:105860009B00B2FBF3F26423B2FBF3F202EBC20340
:1058700003EB0212A1EB8201322202EB011164223E
:10588000B1FBF2F101F0F00100EBC00202EB0012FB
:1058900063689B00B2FBF3F26423B2FBF3F201EB0B
:1058A000021200EBC00101EB001163689B00B1FB29
:1058B000F3F100EBC00303EB00136668B600B3FB23
:1058C000F6F36426B3FBF6F303EBC30606EB031310
:1058D000A1EB8301322303EB01116423B1FBF3F14C
:1058E00001F00F0111442268916070BD0038014041
:1058F0002DE9F04104460D4617469846069E21E0E4
:10590000701CF8B12EB1FAF7D1FFA0EB0800B0423D
:1059100018D92068C06820F4D0702168C860206859
:10592000406920F0010021684861202084F8390096
:1059300084F83A0000BF002084F8380000BF03203C
:10594000BDE8F081206800682840A84201D101200C
:1059500000E00020B842D3D00020F1E700BFFEE70E
:10596000490050EAC12018BF04204A0D18BF40F07A
:10597000010040F2FF72B2EB515F08BF40F002003D
:10598000012808BF0520704702480068C0F30220C4
:10599000704700000CED00E010B5002804DB0A079A
:1059A000130E054A135406E00A07140E034A00F0CA
:1059B0000F031B1FD45410BD00E400E018ED00E0FD
:1059C0002DE9F74F144694B00021C4E9021115994E
:1059D000079121F00045C9498D4206DC1599C4E9BB
:1059E000000117B00020BDE8F08FC549DFF814A30F
:1059F000A9423CDD0799C44E0029C44FC44A1599F9
:105A0000534619DD02F044F8554506D0C14AC24B51
:105A100002F03EF8C4E900010AE04FF0D352BE4B59
:105A200002F036F832463B4602F032F8C4E9000193
:105A300017B00120BDE8F08F01F0AAFB554506D054
:105A4000B44AB54B01F0A4FBC4E900010AE04FF0F1
:105A5000D352B14B01F09CFB32463B4601F098FB20
:105A6000C4E9000117B04FF0FF30BDE8F08FAB493B
:105A7000A942159978DB21F0004183468846A84A5F
:105A8000A84B01F015FE0022A74B01F081FB01F0AD
:105A900087FD099001F0E1FD06460F469C4A5346FA
:105AA00001F006FE43465A4601F000FF80468A4652
:105AB000984A994B3046394601F0FAFD2A0D0125E6
:105AC0000B924246534601F0F1FE032DC4E900015A
:105AD00039D00B98C1F30A51401A05EB4511113921
